:100000000C945C000C946E000C946E000C946E00CA
:100010000C946E000C946E000C946E000C946E00A8
:100020000C946E000C946E000C946E000C946E0098
:100030000C946E000C946E000C946E000C946E0088
:100040000C94B4000C946E000C946E000C946E0032
:100050000C946E000C946E000C946E000C946E0068
:100060000C946E000C946E00000000080002010069
:100070000003040700000000000000000000000072
:10008000250028002B0000000000240027002A0083
:10009000040404040404040402020202020203032E
:1000A0000303030301020408102040800102040836
:1000B000102001020408102011241FBECFEFD8E049
:1000C000DEBFCDBF21E0A0E0B1E001C01D92A930AC
:1000D000B207E1F70E94FE000C94C4010C940000EA
:1000E00090E0FC01EC55FF4F249180579F4FFC019D
:1000F0008491882399F090E0880F991FFC01EA57BA
:10010000FF4FA591B491FC01E458FF4F8591949164
:100110008FB7F894EC91E22BEC938FBF08953FB723
:10012000F8948091050190910601A0910701B0918A
:10013000080126B5A89B05C02F3F19F00196A11D07
:10014000B11D3FBFBA2FA92F982F8827BC01CD0121
:10015000620F711D811D911D42E0660F771F881F80
:10016000991F4A95D1F708951F920F920FB60F92DB
:1001700011242F933F938F939F93AF93BF938091BD
:10018000010190910201A0910301B091040130910D
:10019000000123E0230F2D3758F50196A11DB11D55
:1001A000209300018093010190930201A093030129
:1001B000B09304018091050190910601A09107017F
:1001C000B09108010196A11DB11D80930501909386
:1001D0000601A0930701B0930801BF91AF919F91D1
:1001E0008F913F912F910F900FBE0F901F901895F8
:1001F00026E8230F0296A11DB11DD2CF789484B5B5
:10020000826084BD84B5816084BD85B5826085BD12
:1002100085B5816085BD80916E00816080936E00A0
:100220001092810080918100826080938100809192
:100230008100816080938100809180008160809343
:1002400080008091B10084608093B1008091B00003
:1002500081608093B00080917A00846080937A00FE
:1002600080917A00826080937A0080917A00816028
:1002700080937A0080917A00806880937A0010924F
:10028000C10085E00E94700086E00E9470003DE69B
:10029000832E30E0932EC9EAD0E005E910E040E07B
:1002A000A42E40E0B42EF4018491FE019491F80153
:1002B00024912223D9F0882359F0833009F44DC0CA
:1002C00008F040C0813009F44EC0823009F44FC0BC
:1002D000E22FF0E0EE0FFF1FE458FF4FA591B4911D
:1002E0008FB7F8942C91922B9C938FBF0E948F0014
:1002F0006B017C0184EF482E55245394612C712CA2
:100300000E948F006C197D098E099F09683E734019
:1003100081059105A8F3F1E04F1A510861087108B1
:1003200028EEC20E23E0D21EE11CF11C4114510440
:100330006104710429F7A114B10409F4B4CF0E9437
:100340000000B1CF8730B1F08830D1F0843009F0AF
:10035000BFCF809180008F7D03C0809180008F7718
:1003600080938000B5CF84B58F7784BDB1CF84B53D
:100370008F7DFBCF8091B0008F778093B000A8CFA6
:0C0380008091B0008F7DF9CFF894FFCF82
:00000001FF
